:100000000C943A000C9464050C9457000C946F0007
:100010000C9498000C9457000C9457000C945700C3
:100020000C9457000C9472070C9457000C945700D2
:100030000C9467070C945C070C9457000C945700C1
:100040000C9457000C9457000C94A2060C94570083
:100050000C9457000C9457000C9457000C945700C4
:100060000C9457000C9457006364696E6F7073753D
:1000700078585B0011241FBECFEFD8E0DEBFCDBFA4
:1000800011E0A0E0B1E0E8EFFBE102C005900D92C5
:10009000A838B107D9F711E0A8E8B1E001C01D9276
:1000A000A23AB107E1F70E94AD010C94FA0D0C944D
:1000B0000000E0E2FEE43197F1F721E030E002C019
:1000C000220F331F8A95E2F783B190E082239323B6
:1000D000892BD1F380E29EE40197F1F708951F92F6
:1000E0000F920FB60F9211248F939F931D9917C0F3
:1000F00080918C018823A9F480E29EE40197F1F7B6
:100100001D9BFECF80E29EE40197F1F7809179017B
:1001100091E089278093790190938C0102C010921D
:100120008C019F918F910F900FBE0F901F9018958B
:100130001F920F920FB60F9211248F939F933599B0
:100140001CC0809190018823D1F480E29EE4019745
:10015000F1F71D9BFECF80E29EE40197F1F78091BD
:100160009801882331F080917B0191E08927809369
:100170007B0181E08093900102C010929001309940
:1001800013C080919101882379F480E29EE4019765
:10019000F1F7189BFECF80E29EE40197F1F781E032
:1001A00080939101809392019F918F910F900FBE48
:1001B0000F901F901895AC0180917B018823E1F08E
:1001C00020919701309196018DB79EB70A970FB68F
:1001D000F8949EBF0FBE8DBFEDB7FEB73196ADB799
:1001E000BEB712965C934E93119780E190E0938393
:1001F000828380E091E019C02091970130919601AF
:10020000ADB7BEB71A970FB6F894BEBF0FBEADBF5D
:10021000EDB7FEB7319612965C934E93119780E13D
:1002200090E0938382838CE091E09583848326839E
:100230001782308711860E94DA078DB79EB70A961B
:100240000FB6F8949EBF0FBE8DBF0895AC0180918C
:100250007B018823D1F1809179018823E1F42091F9
:100260009E013091A1018DB79EB70A970FB6F89401
:100270009EBF0FBE8DBFEDB7FEB73196ADB7BEB70F
:1002800012965C934E93119780E190E09383828362
:1002900088E191E051C020919E013091A101ADB75C
:1002A000BEB71A970FB6F894BEBF0FBEADBFEDB77D
:1002B000FEB7319612965C934E93119780E190E0D1
:1002C0009383828384E291E037C08091790188230F
:1002D000D1F420919E013091A101ADB7BEB71A971C
:1002E0000FB6F894BEBF0FBEADBFEDB7FEB73196E7
:1002F00012965C934E93119780E190E093838283F2
:1003000080E391E019C020919E013091A101ADB729
:10031000BEB71A970FB6F894BEBF0FBEADBFEDB70C
:10032000FEB7319612965C934E93119780E190E060
:10033000938382838CE391E0958384832683178261
:10034000308711860E94DA078DB79EB70A960FB6DE
:10035000F8949EBF0FBE8DBF08952F923F924F928B
:100360005F926F927F928F929F92AF92BF92CF9245
:10037000DF92EF92FF920F931F93DF93CF93CDB74E
:10038000DEB7E2970FB6F894DEBF0FBECDBF0E9476
:100390002F0478940E9430070E9446072D9A80917E
:1003A000680081608093680080916B008062809318
:1003B0006B00459A8091680082608093680080910C
:1003C0006C00816280936C008BB18C608BB9E89A71
:1003D0008091690081608093690087B18C6187B9E1
:1003E00088B18C6188B984B1886184B987E690E06E
:1003F0009093C5008093C4008091C1008869809368
:10040000C1008091C20086608093C200409A81E062
:100410000E94150480E061E00E94250488E491E0D8
:100420000E94090481E061E00E94250486E591E0D4
:100430000E94090480E197E220E931E0F901319757
:10044000F1F70197D9F781E00E94150488EC90E05C
:100450000E94970C8093770189EC90E00E94970CA2
:100460008093780180917701823348F08091770101
:100470008B3528F48091770180939E0109C082E337
:1004800080939E0160919E0188EC90E00E949F0CF9
:1004900080917801823348F0809178018B3528F47F
:1004A000809178018093A10109C08AE58093A10120
:1004B0006091A10189EC90E00E949F0C89B1869522
:1004C0008695982F917090938A018695817080937C
:1004D0008B0180918B01882339F480918A018823D4
:1004E00019F41092880117C080918B01882331F490
:1004F00080918A01882311F081E00BC080918B01EB
:10050000882331F080918A01882311F482E001C0B0
:1005100083E080938801809188018093890100E9BC
:1005200011E00FC084EC99E0F8013197F1F70197E1
:10053000D9F780E060E00E94250484E691E00E9403
:1005400009040E94D104882369F30E94A10423E0D6
:10055000622E712C6C0E7D1E90E1492E512C81E78C
:10056000282E81E0382E04EC802E09E0902E13E234
:10057000C12ED12CCC0EDD1EB3E1AB2EB12CAC0EB6
:10058000BD1E80919501882321F0109295010E9453
:10059000E60680919201882329F0109292010E9430
:1005A0005D0602C010929101CE0101960E944105A4
:1005B000882339F3FA80EE24298130E02E293F295F
:1005C000C901A3E0880F991FAA95E1F7820F931F35
:1005D00060E570E00E94C707CB019B01F3E0220FAA
:1005E000331FFA95E1F7880F991F280F391F205CF8
:1005F0003E4FC9016AE070E00E94C7078B014DB70A
:100600005EB74A5050400FB6F8945EBF0FBE4DBF64
:10061000EDB7FEB73196ADB7BEB712967C926E922B
:100620001197538242823582248277836683C9017F
:100630006AE070E00E94C707918780870E94DA070E
:100640004DB75EB7465F5F4F0FB6F8945EBF0FBE03
:100650004DBF80E06CE00E942504C3010E940904A4
:1006600080919801882311F180917B01882339F4CE
:100670008091970180939F018091960106C080919F
:100680009E0180939F018091A1018093A001C501EB
:100690000E94260180E060E00E942504C5010E94BE
:1006A0000904C6010E94DB0081E00CC080919E011C
:1006B00080939F018091A1018093A001C6010E94B7
:1006C000260180E060E00E942504C6010E94090422
:1006D00080919F0190E0081719079CF44298449A72
:1006E000439A90928B0080928A0080918F01882398
:1006F00009F06EC08CE080937A0151E050938F0135
:1007000018C08091A00190E080179107DCF4429A14
:100710004498439A90928B0080928A0080918F0136
:10072000882309F055C08CE080937A0181E08093A2
:100730008F0180917A018093B30010928E01109204
:100740008D0146C010928F0180916F00856080936B
:100750006F00429A449A9091A00180919F0198174E
:1007600031F140919F016091A00150919F018091D2
:100770008800909189002091880030918900041BA5
:1007800011099695879570E0651B7109DC010A9F38
:10079000C0010B9F900D1A9F900D11240E94B3076A
:1007A000261B370B30938B0020938A0011C02091B9
:1007B000880030918900C901880F991F820F931F0B
:1007C000969587959695879590938B0080938A0050
:1007D0000E94A104D6CE9BB19F709BB99BB1807F34
:1007E000892B8BB9299A299A299885E08A95F1F75E
:1007F00008951F93182F289A0E94EB03812F82954A
:10080000807F0E94EB0380E49FE10197F1F71F9145
:100810000895CF93DF93EC0102C00E94F903899100
:100820008823D9F7DF91CF9108951F93182F289827
:100830000E94EB03812F8295807F0E94EB0380E46E
:100840009FE10197F1F71F910895882319F4862FEE
:10085000805802C0862F80540E941504089584B1E8
:10086000836084B98AB1806F8AB980E20E94EB0309
:1008700080E49FE10197F1F788E20E9415048FE080
:100880000E9415040895ECE7F0E080E68083AAE773
:10089000B0E087E08C938081806280838C91806857
:1008A0008C93089590917C008F70907F892B80931A
:1008B0007C0080917A00806480937A0080917A0035
:1008C00086FDFCCF809179000895399A80E699E001
:1008D0000197F1F739988CE091E00197F1F7319B9E
:1008E00002C080E00895319BFECF88EC90E0019734
:1008F000F1F781E00895399A8AE08A95F1F73998FD
:1009000080EF90E00197F1F70895399A80EF90E039
:100910000197F1F739988AE08A95F1F708950F93D6
:100920001F93082F18E000FF03C00E947B0402C041
:100930000E948504115011F00695F5CF1F910F917B
:1009400008950E946504882331F08CEC0E948F0486
:1009500084E40E948F040895399A8AE08A95F1F719
:10096000399885E38A95F1F786B1E8ECF0E03197A4
:10097000F1F790E09695879581700895FF920F9317
:100980001F93FF2401E018E00E94AC048111F02ABB
:10099000115011F0000FF8CF8F2D1F910F91FF9084
:1009A0000895EF92FF920F931F93DF93CF93CDB7EC
:1009B000DEB729970FB6F894DEBF0FBECDBF3998CA
:1009C000419888EE93E020E931E0F9013197F1F7A1
:1009D0000197D9F7319B47C00E946504882309F429
:1009E00042C08CEC0E948F048EEB0E948F048E011B
:1009F0000F5F1F4F3AE0E32EF12CEC0EFD1E0E941C
:100A0000BE04F80181938F01EE15FF05C1F70E9426
:100A10006504882341F18CEC0E948F048EE40E94CF
:100A20008F048B810E948F048C810E948F048FE73A
:100A30000E948F0480E991E00197F1F70E9465041C
:100A4000882389F08CEC0E948F0488E40E948F0434
:100A500088EC90E020E931E0F9013197F1F7019756
:100A6000D9F781E001C080E029960FB6F894DEBF87
:100A70000FBECDBFCF91DF911F910F91FF90EF90EF
:100A800008951F93CF93DF93EC010E94AC04882359
:100A9000B9F00E946504882391F08CEC0E948F04C9
:100AA0008EEB0E948F040E94BE0488830E94BE04C5
:100AB000898310E00E94BE041F5F1730D9F781E0E0
:100AC000DF91CF911F9108951F920F920FB60F9251
:100AD00011242F933F934F935F936F937F938F9343
:100AE0009F93AF93BF93EF93FF9389B186958695BC
:100AF000982F917090938A018695817080938B01D5
:100B0000809188018823A1F480918B01882329F4A6
:100B100080918A01882309F04FC080918B0188233E
:100B200009F44DC080918A01882309F048C03AC079
:100B300080918801813089F480918B01882321F094
:100B400080918A01882301F580918B018823B9F572
:100B500080918A01882399F50CC0809188018230A8
:100B6000A9F480918B01882339F480918A0188232C
:100B700019F41092890123C080918B018823F9F028
:100B800080918A018823D9F083E017C08091880181
:100B90008330A9F480918B01882331F080918A0100
:100BA000882311F482E009C080918B01882339F4F5
:100BB00080918A01882319F081E0809389019091C6
:100BC000890180918801981709F466C08091880195
:100BD000882321F4809189018130C1F080918801BE
:100BE000813021F480918901833081F080918801E6
:100BF000833021F480918901823041F08091880115
:100C00008230F1F4809189018823D1F480917901B7
:100C1000882341F08091A1018A3558F58091A10186
:100C20008F5F1BC080919E018A3518F590919E01BF
:100C30008091A1019817E8F480919E018F5F17C001
:100C400080917901882361F09091A10180919E01AA
:100C5000891778F48091A10181508093A10109C086
:100C600080919E01833328F080919E018150809372
:100C70009E0180917901882329F460919E0188EC7E
:100C800090E004C06091A10189EC90E00E949F0C6B
:100C90008091890180938801FF91EF91BF91AF917D
:100CA0009F918F917F916F915F914F913F912F9184
:100CB0000F900FBE0F901F901895DF93CF93CDB775
:100CC000DEB727970FB6F894DEBF0FBECDBFFE018B
:100CD000319687E0DF011D928A95E9F78CE38983DD
:100CE00080919E016AE00E94A707805D8A838091BF
:100CF0009E010E94A707905D9B838091A1010E94A5
:100D0000A707805D8C838091A1010E94A707905D59
:100D10009D838EE38E831F829E01295F3F4F8091CA
:100D2000C00085FFFCCF81918093C600E217F307D6
:100D3000B1F727960FB6F894DEBF0FBECDBFCF91A7
:100D4000DF9108951F920F920FB60F9211242F93E7
:100D50008F939F93EF93FF939091C6009C3341F440
:100D600081E080939301109294011092950124C028
:100D700020919301213001F5892F80538A3080F42E
:100D8000809194018430A0F4E0919401F0E0E75662
:100D9000FE4F9083809194018F5F809394010CC0EB
:100DA0009E3331F480919401882311F020939501B2
:100DB0001092940110929301FF91EF919F918F9166
:100DC0002F910F900FBE0F901F901895DF93CF9328
:100DD00000D0CDB7DEB710929D014DB75EB7485039
:100DE00050400FB6F8945EBF0FBE4DBFEDB7FEB7D3
:100DF000319689E991E0ADB7BEB712969C938E9378
:100E000011978CE791E093838283CE0101969583BD
:100E10008483CE010296978386830E940B082A81E1
:100E200099814DB75EB7485F5F4F0FB6F8945EBFCC
:100E30000FBE4DBF291778F0822F8253893258F4A4
:100E4000892F8253893238F481E0809398019093FE
:100E50009701209396010F900F90CF91DF91089505
:100E6000EFE6F0E0808185608083E0E8F0E080815B
:100E700083608083E1E8F0E080818B61808384EC93
:100E800099E090938900809388000895E0EBF0E06A
:100E90008081836080838081806880838CE0809300
:100EA000B300E1EBF0E0808187608083E0E7F0E071
:100EB00080818160808308951F920F920FB60F92F8
:100EC0001124439A0F900FBE0F901F9018951F92F8
:100ED0000F920FB60F92112443980F900FBE0F90F0
:100EE0001F9018951F920F920FB60F9211248F9397
:100EF0009F9380918F01882319F180918D019091AA
:100F00008E01019690938E0180938D0180918D01C9
:100F100090918E014B97A0F080917A018F5F809322
:100F20007A0110928E0110928D0180917A018332A4
:100F300018F083E280937A0180917A018093B30064
:100F40009F918F910F900FBE0F901F901895991B36
:100F500079E004C0991F961708F0961B881F7A95B0
:100F6000C9F780950895AA1BBB1B51E107C0AA1FB2
:100F7000BB1FA617B70710F0A61BB70B881F991F3A
:100F80005A95A9F780959095BC01CD01089597FBDE
:100F9000092E07260AD077FD04D0E5DF06D0002011
:100FA0001AF4709561957F4F0895F6F790958195A5
:100FB0009F4F0895AEE0B0E0E0EEF7E00C94D10D65
:100FC0000D891E898F89988D97FF02C080E090E877
:100FD00001979E838D831A83098386E08C839E010B
:100FE000255E3F4FCE010196698D7A8DA9010E9441
:100FF00025084D815E8157FD0AC02F813885421733
:1010000053070CF49A01020F131FF80110822E9659
:10101000E4E00C94ED0DAEE0B0E0E1E1F8E00C941A
:10102000D30D85E08C838B899C899A8389839E016B
:10103000295E3F4FCE0101966D897E89A9010E94EC
:10104000860B2E96E2E00C94EF0DABE0B0E0EBE205
:10105000F8E00C94C30D3C012B015A01FC011782EE
:101060001682838181FD03C06FEF7FEFC6C19AE0D6
:10107000892E1E010894211C311CF3012381F201E9
:1010800023FD859123FF81912F01882309F4B2C1AB
:10109000853239F423FD859123FF81912F0185321B
:1010A00029F490E0B3010E941C0DE7CF982FFF2494
:1010B000EE249924FFE1FF15D0F09B3269F09C32B9
:1010C00028F4903259F0933291F40EC09D3249F0D9
:1010D000903369F441E024C052E0F52A84E0F82A14
:1010E00028C098E0F92A25C0E0E1FE2A22C0F7FCDA
:1010F00029C0892F80538A3070F4F6FE05C0989C71
:10110000902C1124980E15C0E89CE02C1124E80EB8
:10111000F0E2FF2A0EC09E3229F4F6FC6BC140E4D7
:10112000F42A07C09C3619F450E8F52A02C0983614
:1011300049F4F20123FD959123FF91912F01992309
:1011400009F0B8CF892F8554833018F0805283304E
:1011500038F444E050E0A40EB51E5FE359830FC09D
:10116000933631F0933779F0933509F056C020C0AB
:10117000F5018081898342E050E0A40EB51E610133
:1011800001E010E012C0F501C080D180F6FC03C080
:101190006FEF7FEF02C0692D70E042E050E0A40ED7
:1011A000B51EC6010E94CF0C8C015FE7F52214C06A
:1011B000F501C080D180F6FC03C06FEF7FEF02C065
:1011C000692D70E042E050E0A40EB51EC6010E94F9
:1011D000C40C8C0150E8F52AF3FE07C01AC080E267
:1011E00090E0B3010E941C0DEA948E2D90E0081748
:1011F0001907A8F30EC0F601F7FC8591F7FE81915F
:101200006F0190E0B3010E941C0DE110EA940150BF
:1012100010400115110579F7EAC0943611F099369E
:1012200069F5F7FE08C0F5012081318142815381C3
:1012300084E090E00AC0F501808191819C014427FF
:1012400037FD4095542F82E090E0A80EB91E9FE62E
:10125000F92257FF09C050954095309521953F4F91
:101260004F4F5F4FE0E8FE2ACA01B901A1012AE011
:1012700030E00E94620DD82ED21840C0953729F474
:101280001F2D1F7E2AE030E01DC01F2D197F9F36C5
:1012900061F0903720F4983509F0ACC00FC090375A
:1012A00039F0983709F0A6C004C028E030E00AC041
:1012B000106114FD146020E130E004C014FD1660DC
:1012C00020E132E017FF08C0F50160817181828161
:1012D000938144E050E008C0F50180819181BC0118
:1012E00080E090E042E050E0A40EB51EA1010E9413
:1012F000620DD82ED2188FE7F82EF122F6FE0BC021
:101300005EEFF522D91438F4F4FE07C0F2FC05C0F4
:101310008FEEF82202C01D2D01C0192DF4FE0DC064
:10132000FE01ED0DF11D8081803319F499EEF92253
:1013300008C01F5FF2FE05C003C08F2D867809F03C
:101340001F5F0F2DF3FC14C0F0FE0FC01E1510F030
:101350009D2C0BC09D2C9E0C911A1E2D06C080E268
:1013600090E0B3010E941C0D1F5F1E15C0F304C066
:101370001E1510F4E11A01C0EE2404FF0FC080E333
:1013800090E0B3010E941C0D02FF1DC001FD03C0CF
:1013900088E790E00EC088E590E00BC0802F86784B
:1013A00091F001FF02C08BE201C080E2F7FC8DE208
:1013B00090E0B3010E941C0D06C080E390E0B301F1
:1013C0000E941C0D9A94D914C0F3DA94F101ED0D2A
:1013D000F11D808190E0B3010E941C0DDD20A9F772
:1013E00006C080E290E0B3010E941C0DEA94EE205A
:1013F000C1F743CEF30166817781CB012B96E2E101
:101400000C94DF0DFC0120FD08C023FD05C022FF68
:1014100002C073836283518340830895EF92FF92E9
:101420000F931F9344FF02C033E011C046FF02C078
:1014300034E00DC0DB01FC01AA0FBB1FEE1FFF1F34
:101440001094D1F76A0F7B1F8E1F9F1F31E0660F2C
:10145000771F881F991F3150D1F77B018C01E20E55
:10146000F11C011D111DA8019701B701CA011F91AF
:101470000F91FF90EF9008950F931F93CF93DF93F9
:101480008C01C8010E94DA0CEC0197FD08C00E9493
:10149000B10C892BB1F7CE01B8010E94480DCE01E5
:1014A000DF91CF911F910F910895A0E0B0E0EBE59F
:1014B000FAE00C94CB0DEC01C62E5A01122F0E94BB
:1014C000DA0CAC018B3219F08D3251F41068CA94E9
:1014D00009F46DC0CE010E94DA0CAC0197FD67C023
:1014E0006DEFD62ED1228D2D807301F54033F1F4AE
:1014F000CA9409F447C0CE010E94DA0CAC0197FDF2
:1015000041C082E0D82A483711F0483559F480E4C8
:10151000D82ACA94B9F1CE010E94DA0CAC01992301
:101520002CF430C0D6FC02C080E1D82AEE24FF247F
:101530008701242F2053283088F0D4FC09C02A309A
:1015400068F0D6FE05C02F7D822F8151863028F0AD
:10155000CA01BE010E94480D12C02750C801B70140
:101560004D2D0E940E0A7B018C0182E0D82ACA947C
:1015700061F0CE010E94DA0CAC0197FFDACFD1FC0A
:1015800004C015C0EE24FF248701D7FE08C01095C3
:101590000095F094E094E11CF11C011D111DC501A2
:1015A000B801A7012D2D0E94020A81E001C080E050
:1015B000CDB7DEB7EAE00C94E70DA0E2B0E0E3EED1
:1015C000FAE00C94C70D6C01A62E8A017901FE0188
:1015D000319680E2DF011D928A95E9F770E030E0F4
:1015E00060E040E050E04F01A1E0B0E0F60183810F
:1015F000F70183FD259183FF21917F01222309F4C7
:101600007EC02E3519F44115510569F1872F90E000
:101610008417950744F42D3551F12D3221F43323ED
:1016200029F431E021C0332309F4622F322F832FB4
:10163000869586958695F401E80FF11D832F8770B6
:101640003D0102C0660C771C8A95E2F720812629AD
:101650002083361711F430E007C0361710F43F5FCF
:10166000E6CF3150E4CF71E04F5F5F4FBFCF332300
:1016700019F08E8180628E83772359F0FE013196B6
:101680009E012F5D3F4F808180958193E217F30784
:10169000D1F7BB24B3944E010894811C911CC60160
:1016A0000E94DA0CAC0197FD22C08695869586953E
:1016B000F401E80FF11D808190E09A0127703070ED
:1016C00002C0959587952A95E2F780FD05C0CA016D
:1016D000B6010E94480D0BC00115110519F0D80183
:1016E0004D938D01AA94BB24AA20C9F602C0BB2049
:1016F00031F40115110529F0F801108202C0EE2421
:10170000FF24C701A096EEE00C94E30DA0E0B0E04A
:10171000ECE8FBE00C94C70D5C016B013A01FC01A5
:10172000178216828824EAC0812F90E00E94B10CB3
:10173000892B21F0C5010E943C0AE0C0153249F412
:10174000F601F3FC6591F3FE61916F01653269F476
:1017500015E2C5010E94DA0C97FDDCC0181709F4E8
:10176000CDC0B5010E94480DDAC06A3219F0162FBB
:1017700000E006C0F3FC1591F3FE11916F0101E04A
:1017800099240FC00260692D70E080E090E040E293
:101790000E940E0A962EF601F3FC1591F3FE1191AC
:1017A0006F01212F20532A3068F301FD03C09924D3
:1017B0009A9403C0992009F4B2C0183621F01C365F
:1017C00099F4F6010BC0F601F3FC6591F3FE61910B
:1017D000683619F06F01162F07C008600460F3FC2B
:1017E0001591F3FE11916F01112309F498C088E659
:1017F00090E0612F70E00E94B90C892B09F48FC032
:10180000802F00FF03C0EE24FF2407C0F301E08017
:10181000F18022E030E0620E731E1E3651F4F501B5
:101820004681578160E070E0C701202F0E94020AC4
:1018300065C0133691F481FD02C099249394C501CB
:101840000E94DA0C97FD66C0E114F10419F0F7016B
:1018500081937F019A9499F74FC01B3559F4C501C4
:10186000692DA70196010E94DD0A6C01009709F01D
:1018700043C03DC0C5010E943C0A97FD4BC01F36C6
:1018800059F1103728F4143629F1193639F527C0E3
:10189000133719F0153711F51DC0C5010E94DA0C78
:1018A000EC0197FD11C00E94B10C892B29F0CE01EB
:1018B000B5010E94480D08C0E114F10419F0F701C8
:1018C000C1937F019A9449F7E114F104A9F0F7015B
:1018D000108212C0006203C0006101C00064C50133
:1018E000692DA701202F0E94550A882329F4F501AC
:1018F0008381807379F413C000FF8394F501F38032
:10190000F601F3FC1591F3FE11916F01112309F01B
:101910000BCF05C0882019F42FEF3FEF02C0282D10
:1019200030E0C901CDB7DEB7EEE00C94E30DF999D4
:10193000FECF92BD81BDF89A992780B50895262FD4
:10194000F999FECF92BD81BDF89A019700B40216B5
:1019500039F01FBA20BD0FB6F894FA9AF99A0FBE63
:10196000089591110DC1803219F089508550D0F73A
:101970000895FC010590061621F00020D9F7C0015A
:1019800008953197CF010895FC0105906150704092
:101990000110D8F7809590958E0F9F1F0895FC0138
:1019A0006150704001900110D8F7809590958E0F8E
:1019B0009F1F0895CF93DF93EC014B8140FF1AC026
:1019C00046FF0AC04F7B4B838E819F8101969F8388
:1019D0008E838A81282F2BC042FF13C0E881F981B2
:1019E0008081282F332727FD30952115310529F4D3
:1019F00040624B832FEF3FEF1BC03196F983E883A2
:101A000011C0EA85FB85CE0109959C0197FF0AC0AC
:101A10009B812F5F3F4F11F080E201C080E1892B55
:101A20008B83E8CF8E819F8101969F838E8330E0E8
:101A3000C901DF91CF9108950F931F93CF93DF9347
:101A40008C01EB018B8181FF1BC082FF0DC02E81B9
:101A50003F818C819D812817390764F4E881F981E1
:101A60000193F983E88306C0E885F985802F0995FD
:101A7000892B31F48E819F8101969F838E8302C0D2
:101A80000FEF1FEFC801DF91CF911F910F910895C4
:101A90009C01FB01838180FF11C086FD0FC09FEF79
:101AA0002F3F390759F0228380648F7D838386819D
:101AB000978101979783868330E002C02FEF3FEF35
:101AC000C9010895FA01AA27283051F1203181F186
:101AD000E8946F936E7F6E5F7F4F8F4F9F4FAF4F36
:101AE000B1E03ED0B4E03CD0670F781F891F9A1F49
:101AF000A11D680F791F8A1F911DA11D6A0F711DFD
:101B0000811D911DA11D20D009F468943F912AE008
:101B1000269F11243019305D3193DEF6CF010895F0
:101B2000462F4770405D4193B3E00FD0C9F7F6CF21
:101B3000462F4F70405D4A3318F0495D31FD4052E9
:101B4000419302D0A9F7EACFB4E0A695979587957F
:101B500077956795BA95C9F700976105710508955E
:101B60009B01AC010A2E069457954795379527950A
:101B7000BA95C9F7620F731F841F951FA01D0895A2
:101B80009927882708952F923F924F925F926F92E4
:101B90007F928F929F92AF92BF92CF92DF92EF92FD
:101BA000FF920F931F93CF93DF93CDB7DEB7CA1B7E
:101BB000DB0B0FB6F894DEBF0FBECDBF09942A88A9
:101BC000398848885F846E847D848C849B84AA8451
:101BD000B984C884DF80EE80FD800C811B81AA81DE
:101BE000B981CE0FD11D0FB6F894DEBF0FBECDBFA9
:081BF000ED010895F894FFCF08
:101BF800204C3D256420483D25642000204C3D258F
:101C08006420483D25643C003E4C3D256420483D09
:101C180025643C00204C3D25643E483D25643C003D
:101C28003E4C3D256420483D25642000204C3D2540
:101C3800643E483D256420004F6C6C6965204C610A
:101C48005363616C610045453130392D50726F6ABC
:101C5800656374004E6F7420776F726B696E6721CD
:101C68000025642E256400325A010C01253268686B
:081C7800642532686864000075
:00000001FF
